:020000040800F2
:100000009006002045010008092C0008012C00087A
:10001000052C00086D0B0008FD31000800000000F1
:10002000000000000000000000000000352C000867
:10003000710B0008000000000B2C0008372C000892
:100040005F0100085F0100085F0100085F01000810
:100050005F0100085F0100085F0100085F01000800
:100060005F0100085F0100085F0100085F010008F0
:100070005F0100085F0100085F0100085F010008E0
:100080005F0100085F0100085F0100085F010008D0
:100090005F0100085F0100085F0100085F010008C0
:1000A0005F0100085F0100085F0100085F010008B0
:1000B0005F0100085F0100085F0100085F010008A0
:1000C0005F0100085F0100085F0100085F01000890
:1000D0005F010008ED3100085F0100085F010008C2
:1000E0005F0100085F0100085F0100085F01000870
:1000F0005F0100085F0100085F0100085F01000860
:100100005F0100085F0100085F0100085F0100084F
:100110005F0100085F0100085F0100085F0100083F
:100120005F0100085F0100085F0100085F0100082F
:10013000DFF80CD000F04CFC00480047D9780008EC
:10014000900600200648804706480047FEE7FEE785
:10015000FEE7FEE7FEE7FEE7FEE7FEE7FEE7FEE777
:100160003F2C00083101000840EA01039B0703D03F
:1001700009E008C9121F08C0042AFAD203E011F8E6
:10018000013B00F8013B521EF9D27047D2B201E0A8
:1001900000F8012B491EFBD270470022F6E710B58C
:1001A00013460A4604461946FFF7F0FF204610BDE5
:1001B000034611F8012B00F8012B002AF9D118464B
:1001C0007047F0B480EA0102D40F4200B2EB410F55
:1001D00002D20246084611464A0042D0C30DDDB2A3
:1001E000C1F3C752AD1A202D35DAC1F3160141F41F
:1001F000000204B15242C5F1200602FA06F12A417A
:100200001044B3EBD05F23D0C4B1012DA0EBC35099
:1002100009DCF0BC4FF0004202EAC352DBB200F549
:10022000000000F00ABB400000F1807000EBC350FA
:10023000A0F1807040EAD170490009E0490841EA24
:10024000C071A0EBC35000F50000400800EBC350A4
:10025000F0BC00F0E9BA6142012202EB4101001B4F
:10026000F6E7F0BC704781F00041AAE780F000405B
:10027000A7E780EA010210B502F00043400022D057
:100280004A001FD0010E01EB1261C0F35600C2F309
:10029000560240F4000042F40002A0FB02200004D9
:1002A0007F39140400D0401C50EA124001D44000B1
:1002B000491EC2B20C0604EBD010401C4008802A34
:1002C00002D003E0002010BD20F00100002900DA78
:1002D0000020184310BD2DE9FE4F804681EA03003F
:1002E000C00F0C46009021F0004123F00045B8EB10
:1002F0000200A94105D24046214690461C460B46C5
:10030000024623F00040104347D0270DC7F30A00F0
:10031000C3F30A510290401A019040286BDAC3F3EC
:10032000130040F4801B0098924620B10023D2EBCA
:10033000030A63EB0B0B01985946C0F1400250468B
:1003400000F041FA06460D4650465946019A00F023
:1003500059FA10EB08006141002487EA115284EA3F
:10036000E7731A4340D0009A62B3019A012A4FEA18
:10037000075215DC001B61EB02014FF0004202EA5C
:100380000752CDE90042001C41F5801132462B4650
:1003900000F090FA03B0BDE8F08F40462146F9E73F
:1003A000001B61EB0201001C41F5801300185B414A
:1003B0002018A2F5001747EB030140EAD570B619E3
:1003C0006D4111E06D084FEA360645EAC0754FEA07
:1003D0000752001B61EB0201001C41F58011490826
:1003E0004FEA30000019514132462B4603B0BDE8B8
:1003F000F04F00F050BA0098012240000023D0EBEB
:10040000020263EBE073009821464FEAE074B8EB18
:10041000000061EB0401E9E783F000435BE781F052
:10042000004158E72DE9FE4F81EA030404F000443F
:1004300021F0004100944FF0000B23F0004350EAFC
:1004400001045ED052EA03045BD0C3F30A54C1F343
:100450000A552C44A4F2F3340194A0FB0254C1F3D6
:10046000130141F48011C3F3130343F4801301FB20
:10047000024400FB034E840A970A44EA815447EA87
:100480008357A4FB076802958D0A05FB07854FEA91
:10049000932C04FB0C542705029D4FEA065847EAAB
:1004A0001637B5EB08056EEB070C870E920E47EA80
:1004B000811742EA8312A7FB0201B6EB0B0164EB42
:1004C00000042B0D43EA0C335E1844EB1C50DA4653
:1004D0005146E7FB0201C5F313044FEA0B3343EA2D
:1004E00014534FEA0432019C43EA0603A4F10C04BE
:1004F0000294009CCDE900B400F0DCF903B0BDE843
:10050000F08F00200146F9E72DE9F04D81EA030460
:1005100004F0004B21F0004514464FF0000A23F090
:10052000004150EA050220D054EA01021DD0C5F373
:100530000A570246C5F31303C1F31300C1F30A5669
:1005400040F4801543F48013A7EB0608101BD64631
:1005500008F2FD3873EB050002D308F1010801E051
:1005600092185B41B8F1000F03DA00200146BDE8A4
:10057000F08D00204FF48011064684460EE0171BD4
:1005800073EB050705D3121B63EB050306434CEA27
:10059000010C49084FEA300092185B4150EA01070C
:1005A000EDD152EA030012D082EA040083EA050189
:1005B000084305D0101BAB4106D20122002306E000
:1005C00000224FF0004302E06FF0010253101AEBDB
:1005D00006004CEB085110EB0A0041EB0B01BDE8A3
:1005E000F04D00F058B996230022114600F025B9CD
:1005F0000EB540F2334102910021CDE900110A46C7
:100600000B4600F057F903B000BD20F00040C10DCB
:10061000C0F3160040F400007F2901DA0020704783
:10062000962903DCC1F19601C8407047963988408D
:100630007047C1F30A5210B5C1F3130140F2FF3302
:1006400041F480119A4201DA002010BD40F2334398
:100650009A42A2F2334203DC524200F0C3F810BDCA
:10066000904010BD00F0004230F000400AD0C10DB3
:1006700001F56071C0F3160042EA0151C20840075B
:1006800011437047002001467047000030B5041E3A
:1006900071F1000404DB4FF00044404264EB0101BF
:1006A000141E73F1000405DB1C464FF00043524258
:1006B00063EB04038B4208BF824230BD30B5041E99
:1006C00071F1000404DB4FF00044404264EB01018F
:1006D000141E73F1000405DB1C464FF00043524228
:1006E00063EB0403994208BF904230BD01F0004320
:1006F00030B421F0004150EA010206D00A0DA2F503
:100700006072C1F31301002A02DC30BC0020704784
:10071000440F44EAC104C100E01830BC00EBC250F1
:1007200000F082B8002801DBC0F10040002901DBA5
:10073000C1F100418842704730B50B4601460020A8
:100740002022012409E021FA02F59D4205D303FA93
:1007500002F5491B04FA02F52844151EA2F1010214
:10076000F1DC30BD2DE9F05F0546002092469B4646
:1007700088460646814640241BE0284641464746B7
:10078000224600F02FF853465A46C01A914110D322
:1007900011461846224600F016F82D1A67EB01089C
:1007A0004F4622460120002100F00DF817EB00090A
:1007B0004E41201EA4F10104DFDC484631462A46A2
:1007C0004346BDE8F09F202A04DB203A00FA02F1FC
:1007D000002070479140C2F1200320FA03F319432F
:1007E00090407047202A04DB203A21FA02F00021D1
:1007F000704721FA02F3D040C2F120029140084331
:1008000019467047202A06DBCB17203A41FA02F03E
:1008100043EAE07306E041FA02F3D040C2F120025D
:1008200091400843194670470029A8BF7047401CF3
:10083000490008BF20F00100704710B4B0FA80FCF6
:1008400000FA0CF050EA010404BF10BC704749B133
:10085000CCF1200421FA04F411FA0CF118BF0121A3
:1008600021430843A3EB0C01CB1D4FEA00614FEA83
:10087000102042BF002010BC704700EBC350104452
:100880000029A4BF10BC7047401C490008BF20F0DD
:10089000010010BC704710B5141E73F1000408DA93
:1008A000401C41F1000192185B411A4301D120F034
:1008B000010010BD2DE9F04D92469B4611B1B1FAF1
:1008C00081F202E0B0FA80F220329046FFF77BFF1F
:1008D00004460F4640EA0A0041EA0B0153465A46D5
:1008E000084313D0114653EA010019D0C8F1400261
:1008F0005046FFF777FF05460E465046594642469A
:10090000FFF761FF084305D0012004E02046394687
:10091000BDE8F08D0020054346EAE0762C433743DE
:100920000A986305E40AA0EB08000022FD0A44EAE5
:1009300047540A3002D500200146E9E701051019A5
:100940006941DDE9084500196941BDE8F04DA2E7BC
:1009500070B521F0004303430CD0C1F30A550024C5
:10096000D5EB040564EB0403D617AD1AB34102DBE3
:100970000020014670BD201841EB025170BD0EB53C
:10098000C10F80EAE0700844CA07002140F23343F7
:100990008DE80E000A460B46FFF78CFF03B000BD42
:1009A000C1F30A52C1F3130140F2FF3341F4801145
:1009B0009A4202DA00200146704740F233439A42DD
:1009C000A2F2334202DC5242FFF70CBFFFF7FBBE3C
:1009D000064C074D06E0E06840F0010394E807008C
:1009E00098471034AC42F6D3FFF7A6FBB8BE000818
:1009F000D8BE00082DE9F04D00231A461B1A8A4183
:100A000003DB00200146BDE8F08DC1F30A52C1F3BB
:100A1000130141F480154FF0000BD10702D10018EB
:100A20006D41521E0027044640F2FF11384601EB8B
:100A3000620A3E468046024600204FF48011FFF7CE
:100A4000D1FEC2197141BB1846EB0100B4EB030C97
:100A500075EB000C04D3E41A65EB000517460E464F
:100A6000241908F101006D4180463428E3DDF919AD
:100A700046EB0600091BA84103D24FF0FF32134694
:100A800001E0002213461BEB070046EB0A51BDE8CC
:100A9000F04DFFF700BF70B5044600252068806860
:100AA00000F00100F0B12068806820F001002168AA
:100AB000886000F0A7FE05460EE000F0A3FE401B94
:100AC000022809D9A06A40F01000A062E06A40F054
:100AD0000100E062012070BD2068806800F0010024
:100AE0000028EAD10020F6E738B5044600250020AA
:100AF00000902068806800F0010080BB206880685A
:100B000040F0010021688860164800681649B0FB73
:100B1000F1F0009002E00098401E0090009800283C
:100B2000F9D100F06FFE054613E000F06BFE401BAC
:100B300002280ED9A06A40F01000A062E06A40F0DE
:100B40000100E06200BF002084F8240000BF012003
:100B500038BD2068806800F001000028E5D0002042
:100B6000F6E700000000002040420F0000BFFEE753
:100B70007047000070B50446B3F5804F13D1D1E93A
:100B8000000540EA05108D6840EA05208D6928437C
:100B90008D8940EA054054F82250064E35402843DE
:100BA00044F8220003E06FF0704044F82200002077
:100BB00070BD00000000F0CF70B50246086852F822
:100BC000200020F001000E6842F8260088680828FE
:100BD00001D1402300E00023486818438E68304369
:100BE000CE6830430E6930434E693043CE6930439E
:100BF0000E6A30434E6A30438E6A3043CE6A3043C9
:100C00000E6B40EA060488690443486B0443074DB1
:100C100045F4806545F4E025086852F82000A843B3
:100C200020430E6842F82600002070BD7FFB0800BC
:100C300010B50346D1E9000440EA04108C6840EA8C
:100C400004208C8940EA0444088A401E44EA005487
:100C5000087D801E44EA00608C692043541C53F8D0
:100C6000244004F040442043541C43F82400002056
:100C700010BD0000F8B5044600260020009000BF1B
:100C800094F82400012801D10220F8BD012084F845
:100C9000240000BF2046FFF7FEFE0646002E62D16C
:100CA000A06A20F4885040F00200A062022000F008
:100CB00059FE30490968B1FBF0F04000009002E0B5
:100CC0000098401E009000980028F9D12046FFF7B8
:100CD0000BFF2068806840F008002168886000F001
:100CE00091FD054611E000F08DFD401B0A280CD94E
:100CF000A06A20F0020040F01000A06200BF0020B7
:100D000084F8240000BF0120BFE72068806800F05D
:100D100008000028E7D12068806840F004002168BE
:100D2000886000F06FFD054611E000F06BFD401B90
:100D30000A280CD9A06A20F0020040F01000A0623E
:100D400000BF002084F8240000BF01209DE7206838
:100D5000806800F004000028E7D1A06A20F00200BB
:100D600040F00100A06200BF002084F8240000BF12
:100D700030468AE70000002038B5024600230020F4
:100D8000009000BF92F82400012801D1022038BD54
:100D9000012082F8240000BF4868072812D210689A
:100DA000406B0C79641E04EB84051F24AC40A04307
:100DB0000D796D1E05EB85050C68AC402043146869
:100DC000606327E048680D2812D21068006B0C7928
:100DD000E41F04EB84051F24AC40A0430D79ED1FF4
:100DE00005EB85050C68AC4020431468206311E0D6
:100DF0001068C06A0C790D3C04EB84051F24AC40DC
:100E0000A0430D790D3D05EB85050C68AC402043F2
:100E10001468E06208680A2812D31068C0680C7869
:100E20000A3C04EB44050724AC40A0430D780A3D7E
:100E300005EB45058C68AC4020431468E0600FE08A
:100E4000106800690C7804EB44050724AC40A0430B
:100E50000D7805EB45058C68AC4020431468206193
:100E60000868102802D00868112827D1174C10688C
:100E7000A0421ED11068806800F40000F0B910682C
:100E8000806840F400001468A0600868102815D13C
:100E90000F4800680F4CB0FBF4F000EB80004000FE
:100EA000009002E00098401E009000980028F9D1C0
:100EB00004E0906A40F020009062012300BF00200F
:100EC00082F8240000BF184661E7000000240140BA
:100ED0000000002040420F000146886A704701462A
:100EE0000868C06C704700002DE9F04104460027F7
:100EF00000250026A84614B90120BDE8F081A068AD
:100F000010B1207D00B100BFA06A30B90020E062BE
:100F100084F82400204600F097F82046FFF7BBFD38
:100F20000746A06A00F01000002873D1002F7ED180
:100F3000A06A20F4885040F00200A0623F4AD4E941
:100F40000001904208D1E069B0F5402F02D14FF482
:100F5000002002E0E06900E0E0690143207B41EA13
:100F600040000643A068B0F5807F02D0A068012849
:100F700002D14FF4807000E000200543207D01285D
:100F800011D1207B38B9A069401E4FF4006141EABD
:100F90004030054307E0A06A40F02000A062E06A0C
:100FA00040F00100E0622068406820F46940284376
:100FB00021684860206880682149084030432168E2
:100FC0008860A068B0F5807F02D0A068012802D1B7
:100FD0004FF4807000E00020B0F5807F03D1208ABC
:100FE000401E4FEA00582068C06A20F4700040EAB2
:100FF00008002168C8622068806812490840B04231
:1010000009D10020E062A06A20F0020040F0010057
:10101000A06211E00BE0A06A20F0020040F0100096
:10102000A062E06A40F00100E062012704E0A06AEB
:1010300040F01000A062012738465EE7003C014006
:10104000FDF7E1FFFE0E1FFF70470000F8B50446F4
:101050000D46002600200090002700F0D3FB064636
:101060002068806800F4807050B1A06A40F02000D1
:10107000A06200BF002084F8240000BF0120F8BD5A
:101080002068406800F48070F8B92068C06A00F4F5
:101090007000D0B912E0681C80B125B100F0B2FB3D
:1010A000801BA8420AD9A06A40F00400A06200BFD9
:1010B000002084F8240000BF0320E0E720680068D7
:1010C00000F002000028E6D050E0022000F04AFCC8
:1010D00036490968B1FBF0F021680969344A1140CA
:1010E00091B92168C9689211114069B921680969EB
:1010F000304A114031B92168C9689211114009B9CB
:10110000142117E0292115E021680969294A1140B5
:1011100021B92168C9689211114041B1216809695A
:10112000254A114029B92168C968114009B95421DB
:1011300000E0FC2100FB01F715E0681C80B125B13F
:1011400000F060FB801BA8420AD9A06A40F00400AE
:10115000A06200BF002084F8240000BF03208EE7B7
:101160000098401C00900098B842E6D36FF012003F
:1011700021680860A06A40F40070A062206880685E
:1011800000F46020B0F5602F0DD1207B58B9A06A23
:1011900020F48070A062A06A00F4805018B9A06AA0
:1011A00040F00100A062002069E70000000000207C
:1011B00024499224922449124992240070B504468D
:1011C000002500BF94F82400012801D1022070BD41
:1011D000012084F8240000BF2046FFF785FC054667
:1011E000002D77D1A06A40F20121884340F480703D
:1011F000A0623C492068884208D13B48006800F45E
:10120000702008B9012002E0002000E0012078B140
:10121000A06A20F48010A0622068406800F480601A
:1012200000B3A06A20F4005040F48050A06219E09E
:10123000A06A40F48010A0622B49091F20688842F0
:1012400003D028492068884204D12748006800F468
:10125000806000E0002028B1A06A20F4005040F433
:101260008050A062A06A00F4805020B1E06A20F0B3
:101270000600E06201E00020E06200BF002084F888
:10128000240000BFC01E216808602068806800F448
:101290006020B0F5602F16D112492068884208D12D
:1012A0001148006800F4702008B9012002E0002015
:1012B00000E0012038B12068806840F4A000216877
:1012C00088600CE006E02068806840F480102168A7
:1012D000886004E000BF002084F8240000BF284696
:1012E00075E70000002801400424014070B5044661
:1012F000002594F82100022803D00420A0630125D2
:10130000C1E02068006820F00E00216808602068B5
:10131000006820F00100216808605C49206888426C
:1013200052D95A4978392068884201D1012047E0D2
:10133000564964392068884201D1102040E0534961
:1013400050392068884201D1801539E04F493C3935
:101350002068884201D1801432E04C492839206845
:10136000884202D14FF480302AE04849143920687D
:10137000884202D14FF4801022E04449206888421C
:1013800001D140041CE042492068884201D101207B
:1013900016E03F4914312068884201D110200FE047
:1013A0003B4928312068884201D1801508E038493E
:1013B0003C312068884201D1801401E04FF4803034
:1013C0003349091F086051E0304978392068884264
:1013D00001D1012047E02D4964392068884201D1BC
:1013E000102040E0294950392068884201D18015F9
:1013F00039E026493C392068884201D1801432E026
:10140000224928392068884202D14FF480302AE0EE
:101410001E4914392068884202D14FF4801022E01E
:101420001A492068884201D140041CE0184920680C
:10143000884201D1012016E0154914312068884204
:1014400001D110200FE0124928312068884201D1D3
:10145000801508E00E493C312068884201D1801493
:1014600001E04FF48030094980394860012084F858
:10147000210000BF002084F8200000BF606B10B185
:101480002046616B8847284670BD000080000240FE
:10149000080402402DE9F847024600239C467BE100
:1014A0004FF0010808FA03F4D1F8008008EA0400BC
:1014B000A0427DD1DFF8F4A2D1F80480A8EB0A099C
:1014C000D0453AD014DCB8F1030F50D009DCB8F1A4
:1014D000000F31D0B8F1010F1CD0B8F1020F49D183
:1014E00020E0B8F1110F18D0B8F1120F42D11EE070
:1014F000B9F5881F25D006DCB9F5803F20D0B9F5B5
:10150000801F37D11AE0B9F5001F18D0B9F5041FB4
:1015100030D117E0D1F80CC02DE0D1F80C8008F1E3
:10152000040C28E0D1F80C8008F1080C23E0D1F875
:101530000C8008F10C0C1EE000BF00BF00BF00BF14
:1015400000BF00BFD1F80880B8F1000F02D14FF002
:10155000040C0BE0D1F80880B8F1010F03D14FF073
:10156000080C146102E04FF0080C546103E04FF0E6
:10157000000C00E000BF00BFFF2801D8904601E04A
:1015800002F104084646FF2802D84FEA830803E028
:10159000A3F108084FEA88084746D6F800804FF0C4
:1015A0000F0909FA07F928EA09080CFA07F900E017
:1015B0007AE048EA0908C6F80080D1F8048008F00B
:1015C0008058B8F1805F6FD100BFDFF8E481D8F8B0
:1015D000188048F00108DFF8D891C9F81880C8468B
:1015E000D8F8188008F00108CDF8008000BF00BFCF
:1015F0004FEAB9384FEA930958F829504FEA8378EF
:101600004FEA18794FF00F0808FA09F825EA08059B
:10161000DFF8A081424502D14FF0000824E0DFF856
:101620009881424502D14FF001081DE0DFF88C811E
:10163000424502D14FF0020816E0DFF884814245AE
:1016400002D14FF003080FE0DFF87881424502D164
:101650004FF0040808E0DFF87081424502D14FF0F6
:10166000050801E04FF006084FEA83794FEA19793F
:1016700008FA09F848EA0505DFF850814FEA9309AE
:1016800048F82950D1F8048008F48038B8F5803F34
:101690000BD1DFF83C81D8F8008048EA0008DFF879
:1016A0003091C9F800800AE075E0DFF82481D8F8AD
:1016B000008028EA0008DFF81891C9F80080D1F806
:1016C000048008F40038B8F5003F0ED1DFF800813F
:1016D00008F10408D8F8008048EA0008DFF8F09024
:1016E00009F10409C9F800800DE0DFF8E48008F191
:1016F0000408D8F8008028EA0008DFF8D49009F13F
:101700000409C9F80080D1F8048008F48018B8F5FD
:10171000801F0ED1DFF8B88008F10808D8F80080E3
:1017200048EA0008DFF8A89009F10809C9F8008024
:101730000DE0DFF89C8008F10808D8F8008028EA5E
:101740000008DFF88C9009F10809C9F80080D1F889
:10175000048008F40018B8F5001F0ED1DFF870807F
:1017600008F10C08D8F8008048EA0008DFF860901B
:1017700009F10C09C9F800800DE0DFF8548008F188
:101780000C08D8F8008028EA0008DFF8449009F136
:101790000C09C9F800805B1CD1F8008028FA03F816
:1017A000B8F1000F7FF47CAEBDE8F887000011109F
:1017B0000010024000080140000C014000100140F0
:1017C0000014014000180140001C014008000140C5
:1017D00000040140024693680B400BB1012000E079
:1017E0000020704710B5C26821EA020302EA010432
:1017F00043EA0443036110BD0AB1016101E00B0437
:101800000361704701480068704700001000002025
:101810000348006803490978084401490860704793
:10182000100000201800002010B50848006840F0A3
:10183000100006490860052000F080F80F2000F035
:1018400007F800F02BF8002010BD00000020024037
:1018500070B504460E4800784FF47A71B1FBF0F091
:101860000C490968B1FBF0F5284600F0F9FC08B115
:10187000012070BD102C07D200222146501E00F01E
:101880001EF80548046001E00120F2E70020F0E7BF
:1018900018000020000000201400002070470146BE
:1018A0000846002809DB00F01F0301229A40430983
:1018B0009B0003F1E023C3F8002100BF70472DE92E
:1018C000F05F80460D461646002701F0D1FC074622
:1018D00039462A46334601F00700C0F1070ABAF13B
:1018E000040F02D94FF0040A01E0C0F1070AD14603
:1018F00000F1040ABAF1070F02D24FF0000A01E02A
:10190000A0F1030AD4464FF0010A0AFA09FAAAF133
:10191000010A0AEA020A0AFA0CFA4FF0010B0BFA62
:101920000CFBABF1010B0BEA030B4AEA0B0421465B
:10193000404601F0A5FCBDE8F09F000000BF00F0AC
:101940000702064B19684FF6FF031940044B0B437F
:1019500043EA0221014B196000BF70470CED00E023
:101960000000FA052DE9F04385B0064642A30FCBEF
:1019700001AC0FC444A0006800904FF0000800259F
:1019800000270024A146042E36D004DC012E3BD0D3
:10199000022E6BD15FE0082E32D0102E66D13B486C
:1019A0004468006800F0807000B301A8C4F383416C
:1019B000475C04F4803070B134484068C0F3404064
:1019C0001DF8008004F4803040B13148B0FBF8F0DD
:1019D00000FB07F502E02F4807FB00F52B484068A5
:1019E00000F48000B0F5800F01D1A94603E0680043
:1019F0000321B0FBF1F93AE000F03AF9814636E014
:101A000000F036F9814632E02048046A04F4407060
:101A1000B0F5807F05D104F0020010B14FF4004909
:101A200018E004F44070B0F5007F07D11748406A11
:101A300000F0020010B149F640490BE004F4407098
:101A4000B0F5407F06D11148006800F4003008B1BD
:101A50004FF224490BE000F0FBF80C494968C1F350
:101A60008131491C4900B0FBF1F900E000BF00BF23
:101A7000484605B0BDE8F0830203040506070809DF
:101A80000A0B0C0D0E0F1010010200000010024096
:101A900000127A0000093D0070B504460D460CB9ED
:101AA000012070BD5A48006800F00700A8420ED21D
:101AB0005748006820F00700284355490860084649
:101AC000006800F00700A84201D00120E9E7207873
:101AD00000F0020002281DD1207800F00400042844
:101AE00005D14C48406840F4E0604A49486020789D
:101AF00000F00800082805D14648406840F46050CE
:101B0000444948604348406820F0F000A168084319
:101B100040494860207800F0010078B360680128EF
:101B200006D13C48006800F4003090B90120B8E7C5
:101B30006068022806D13748006800F0007040B99C
:101B40000120AEE73348006800F0020008B9012028
:101B5000A7E73048406820F00300616808432D493A
:101B60004860FFF74FFE064609E0FFF74BFE801B7B
:101B700041F28831884202D9032092E707E02548E4
:101B8000406800F00C006168B0EB810FEDD1204897
:101B9000006800F00700A8420ED91D48006820F038
:101BA000070028431A4908600846006800F007004B
:101BB000A84201D0012074E7207800F00400042836
:101BC00007D11448406820F4E060E16808431149F7
:101BD0004860207800F00800082808D10D484068C7
:101BE00020F46050216940EAC1000A49486000F0D1
:101BF0003FF808494968C1F30311074A515CC840DE
:101C00000649086006480068FFF722FE002048E702
:101C10000020024000100240688E000800000020F2
:101C200014000020014800687047000000000020F8
:101C300000B5FFF7F7FF04494968C1F30221034AE1
:101C4000515CC84000BD000000100240788E0008C2
:101C500000B5FFF7E7FF04494968C1F3C221034A11
:101C6000515CC84000BD000000100240788E0008A2
:101C7000F0B585B00FF26C0C9CE8E01001A8A0E86C
:101C8000E0101CA52D6800950021002200230024EF
:101C90000020194D696801F00C05F5B1042D02D042
:101CA000082D19D101E0154819E001ADC1F38346B3
:101CB000AC5D01F4803555B10F4D6D68C5F34045FD
:101CC0001DF805200D4D6543B5FBF2F302E00C4D08
:101CD00004FB05F3184602E000BF084800BF00BF40
:101CE00005B0F0BD02030405060708090A0B0C0D38
:101CF0000E0F1010010200000010024000127A00C6
:101D000000093D00F8B504460CB90120F8BD207863
:101D100000F00100002878D0F848406800F00C007E
:101D200004280CD0F548406800F00C00082811D1B8
:101D3000F248406800F48030B0F5803F0AD1EF48A7
:101D4000006800F4003000285FD0606800285CD193
:101D50000120DBE700BF6068B0F5803F06D1E748AF
:101D6000006840F48030E549086028E0606858B9B0
:101D7000E248006820F48030E049086008460068C6
:101D800020F4802008601AE06068B0F5A02F0BD125
:101D9000DA48006840F48020D849086008460068A6
:101DA00040F4803008600AE0D448006820F48030B5
:101DB000D24908600846006820F48020086000BF0F
:101DC000606888B1FFF71EFD054606E0FFF71AFDC3
:101DD000401B642801D9032098E7C848006800F434
:101DE00000300028F2D010E0FFF70CFD054606E0B9
:101DF000FFF708FD401B642801D9032086E7BF4890
:101E0000006800F400300028F2D1207800F00200D1
:101E1000022857D1B948406800F00C0050B1B748CB
:101E2000406800F00C00082818D1B448406800F45D
:101E3000803098B9B148006800F0020020B12069F4
:101E4000012801D0012061E7AC48006820F0F800CB
:101E5000616940EAC100A949086033E02069E8B13E
:101E60000120A7490860FFF7CDFC054606E0FFF713
:101E7000C9FC401B022801D9032047E79F4800689E
:101E800000F002000028F2D09C48006820F0F80022
:101E9000616940EAC1009949086013E0002098494F
:101EA0000860FFF7AFFC054606E0FFF7ABFC401B00
:101EB000022801D9032029E79048006800F00200B9
:101EC0000028F2D1207800F0080008282DD1A06960
:101ED000B8B101208B490860FFF794FC054606E085
:101EE000FFF790FC401B022801D903200EE783482E
:101EF000406A00F002000028F2D0012000F086FEC7
:101F000013E000207F490860FFF77CFC054606E0EF
:101F1000FFF778FC401B022801D90320F6E677483A
:101F2000406A00F002000028F2D1207800F004009E
:101F3000042873D100277148C06900F0805070B93F
:101F400000BF6E48C06940F080506C49C8610846C7
:101F5000C06900F08050009000BF00BF01276A48B0
:101F6000006800F48070B0B96748006840F4807081
:101F700065490860FFF746FC054606E0FFF742FCAE
:101F8000401B642801D90320C0E65F48006800F4C4
:101F900080700028F2D000BFE068012806D15748C1
:101FA000006A40F001005549086227E0E06858B92E
:101FB0005248006A20F00100504908620846006A51
:101FC00020F00400086219E0E06805280BD14B48B6
:101FD000006A40F00400494908620846006A40F07F
:101FE000010008620AE04548006A20F00100434908
:101FF00008620846006A20F00400086200BFE0683A
:10200000A0B1FFF7FFFB054609E0FFF7FBFB401B14
:1020100041F28831884202D9032077E622E037482E
:10202000006A00F002000028EFD012E0FFF7EAFBA0
:10203000054608E0FFF7E6FB401B41F28831884285
:1020400001D9032062E62D48006A00F00200002852
:10205000F0D1012F05D12948C06920F080502749CF
:10206000C86100BFE069C8B32448406800F00C00B4
:10207000082860D0E069022848D10020204908667D
:10208000FFF7C0FB054606E0FFF7BCFB401B02283C
:1020900001D903203AE61948006800F000700028D2
:1020A000F2D1206AB0F5803F07D11448406820F48F
:1020B0000030A168084311494860D4E90801084389
:1020C0000E49496821F4741108430C494860012005
:1020D0000B490866FFF796FB054607E03DE0FFF772
:1020E00091FB401B022801D903200FE6034800683A
:1020F00000F000700028F2D02FE000000010024035
:102100000000424280044242007000400020144916
:102110000866FFF777FB054606E0FFF773FB401BF9
:10212000022801D90320F1E50E48006800F0007094
:102130000028F2D111E0E069012800D1E6E5094864
:10214000466806F48031206A814204D106F4701199
:10215000606A814201D00120D8E50020D6E5000068
:10216000000042420010024070B504460E4615467B
:102170001CB1A069B0F5807F01D1012070BD94F839
:10218000410028B9002084F84000204600F020F8E3
:1021900004F108012068FEF70FFD3146A2682068AF
:1021A000FEF746FD2946236BD4E90102FEF7E2FC67
:1021B000A168206850F8210040F00100A268216861
:1021C00041F82200012084F841000020D6E70000F9
:1021D00010B586B0044600BF1E48406940F48070C8
:1021E0001C4948610846406900F48070019000BFB6
:1021F00000BF00BF0846806940F0200088610846A3
:10220000806900F02000019000BF00BF00BF0846B9
:10221000806940F0400088610846806900F0400015
:10222000019000BF00BF4CF20370029002200390A7
:10223000012004900320059002A90748FFF72AF91E
:102240004FF68070029002A90448FFF723F906B008
:1022500010BD0000001002400014014000180140B1
:1022600070B504462546681EB0F1807F01D3012079
:102270000FE0681E4FF0E02148610F214FF0FF3062
:1022800000F0FEFF00204FF0E02188610720086188
:10229000002070BD30B502460B4600BF92F83C00EE
:1022A000012801D1022030BD012082F83C0000BF8E
:1022B000022082F83D00106844681068816824F0AC
:1022C00070041868044310684460144D1068A842F4
:1022D00013D0134D1068A8420FD01068B0F1804F92
:1022E0000BD0104D1068A84207D00F4D1068A842BF
:1022F00003D00E4D1068A84205D121F08001586826
:10230000014310688160012082F83D0000BF002079
:1023100082F83C0000BF00BFC5E70000002C014070
:10232000003401400004004000080040000C004060
:1023300010B504460CB9012010BD94F83D0028B931
:10234000002084F83C00204600F025F8022084F8A4
:102350003D00211D206800F073FC012084F8460038
:1023600000BF84F83E0001213F2001554020015567
:102370004120015500BF00BF012084F842004320E6
:102380000155442001554520015500BF012084F826
:102390003D000020D0E770472DE9F04104460D468E
:1023A00000BF94F83C00012802D10220BDE8F08172
:1023B000012084F83C0000BF022084F83D00206822
:1023C000866826F0770626F47F46206886602868AF
:1023D000502833D00CDC202850D004DC00284BD00F
:1023E000102851D149E0302849D040284CD139E05B
:1023F00060282DD0702807D0B0F5805F03D0B0F5ED
:10240000005F41D10DE040E0D5E902136A68206821
:1024100000F075FC2068866846F0770620688660C4
:1024200033E0D5E902136A68206800F068FC206890
:10243000806840F480402168886026E0EA68696826
:10244000206800F04DFD5021206800F063FC1CE086
:10245000EA686968206800F056FD6021206800F095
:1024600059FC12E0EA686968206800F039FD4021F3
:10247000206800F04FFC08E000BF00BF00BF2968E3
:10248000206800F047FC00E000BF00BF012084F896
:102490003D0000BF002084F83C0000BF00BF85E77E
:1024A00070B504460D46164600BF94F83C0001285E
:1024B00001D1022070BD012084F83C0000BF36B17C
:1024C000042E1BD0082E31D00C2E5ED145E02946BB
:1024D000206800F029FC2068806940F0080021682D
:1024E00088612068806920F0040021688861206884
:1024F0008069296908432168886147E02946206886
:1025000000F04AFC2068806940F40060216888611E
:102510002068806920F48060216888612068806973
:10252000296940EA0120216888612FE02946206856
:1025300000F070FC2068C06940F008002168C861A4
:102540002068C06920F004002168C8612068C06963
:10255000296908432168C86118E02946206800F00D
:1025600095FC2068C06940F400602168C86120685B
:10257000C06920F480602168C8612068C069296949
:1025800040EA01202168C86100E000BF00BF00BF31
:10259000002084F83C0000BF00BF8BE710B5044664
:1025A0000CB9012010BD94F83D0028B9002084F832
:1025B0003C00204600F025F8022084F83D00211D53
:1025C000206800F03DFB012084F8460000BF84F83D
:1025D0003E0001213F200155402001554120015579
:1025E00000BF00BF012084F8420043200155442071
:1025F00001554520015500BF012084F83D00002011
:10260000D0E7704770B504460D4615B994F83E0002
:102610000BE0042D02D13F20005D06E0082D02D121
:102620004020005D01E04120005D012801D0012033
:1026300070BD1DB9022084F83E000EE0042D03D1C8
:1026400002213F20015508E0082D03D1022140203E
:10265000015502E00221412001550122294620684E
:1026600000F03CFB1F492068884203D01E492068C7
:10267000884201D1012000E0002028B12068406C90
:1026800040F400402168486416492068884213D00D
:102690001549206888420FD02068B0F1804F0BD0D8
:1026A00012492068884207D011492068884203D027
:1026B0001049206888420CD12068806800F0070625
:1026C000062E0CD02068006840F0010021680860E8
:1026D00005E02068006840F00100216808600020E3
:1026E000A6E70000002C0140003401400004004037
:1026F00000080040000C004030B504460D460022A2
:102700002946206800F0EAFA23492068884203D06D
:1027100022492068884201D1012000E0002090B1C8
:1027200000BF2068006A41F21111084050B92068CA
:10273000006A8910084028B92068406C20F40040E5
:102740002168486400BF00BF2068006A41F211118F
:10275000084050B92068006A8910084028B92068EC
:10276000006820F001002168086000BF1DB9012049
:1027700084F83E000EE0042D03D101213F200155D5
:1027800008E0082D03D101214020015502E001217C
:1027900041200155002030BD002C01400034014093
:1027A000704700002DE9F04704462068056820685E
:1027B000C668206847694FF00008C14605F00F0859
:1027C000B8F1000F0AD105F0200038B106F0200062
:1027D00020B1204600F0D5FBBDE8F087B8F1000F2E
:1027E00071D007F0010018B906F4907000286AD083
:1027F00005F0010030B106F4807018B1E06B40F0D4
:102800000100E06305F0040030B107F0010018B1E9
:10281000E06B40F00200E06305F0020030B107F029
:10282000010018B1E06B40F00400E06305F008001F
:1028300048B106F0200010B907F0010018B1E06BB4
:1028400040F00800E063E06B68B305F0200028B1B9
:1028500006F0200010B1204600F093FB206840698C
:10286000C0F38019E06B00F0080010B9B9F1000F57
:1028700022D0204600F065FB2068406900F040004F
:10288000B0B12068406920F0400021684861606B69
:1028900050B11848616B4863606BFEF727FD10B1BB
:1028A000606B416B88470CE02046FFF779FF08E03A
:1028B0002046FFF775FF04E02046FFF771FF002078
:1028C000E06389E7FFE705F0800030B106F08000A3
:1028D00018B1204600F024FC7EE705F0400030B13E
:1028E00006F0400018B1204600F03BFB74E700BF43
:1028F00072E700002F2F000810B504460CB9012024
:1029000010BDA06900B100E000BF94F8390028B9FB
:10291000002084F83800204600F028F8242084F8AD
:1029200039002068C06820F400502168C860204643
:1029300000F078FB2068006920F49040216808616D
:102940002068406920F02A00216848612068C0683A
:1029500040F400502168C8600020E063202084F823
:10296000390084F83A000020CAE7000010B586B0AC
:1029700004462849206888424AD100BF00BF264843
:10298000806940F00400244988610846806900F0AD
:102990000400019000BF00BF00BF00BF00BF084699
:1029A000806940F0040088610846806900F00400F6
:1029B000019000BF00BF00BF00BF00BF0846806994
:1029C00040F4804088610846806900F480400190AE
:1029D00000BF00BF00BF48150290022003900120F5
:1029E00004900320059002A90C48FEF753FD4FF414
:1029F000806002900020039002A90848FEF74AFD7B
:102A00002520FEF74CFF032211462520FEF757FF35
:102A100006B010BD0038014000100240000801401F
:102A200010B5034693F83A0020282FD101B10AB916
:102A3000012010BD00BF93F83800012801D1022009
:102A4000F7E7012083F8380000BF99629A85DA859C
:102A50000020D863222083F83A0000BF002083F8CA
:102A6000380000BF1868C06840F480701C68E060DF
:102A70001868406940F001001C6860611868C0680F
:102A800040F020001C68E0600020D2E70220D0E780
:102A900010B504462049206888423BD11F48008871
:102AA00000F4004088BB1D48008800F4804070B1ED
:102AB0001B4800780A2803D000201849088024E029
:102AC0001648008840F40040144908801DE014486E
:102AD00000780D2806D11148008840F480400F4945
:102AE000088012E00E4800780C490988C1F30D01F6
:102AF0000C4A505409480088401C08490880084680
:102B00000088C72801DD002008800122044906480A
:102B1000FFF786FF10BD0000003801400C000020C8
:102B20000E0000202C000020F40000202DE9F84FBA
:102B300004460E46174699464FF0000A94F83900AD
:102B400020285AD106B117B90120BDE8F88F00BF7F
:102B500094F83800012801D10220F6E7012084F81A
:102B6000380000BF0020E063212084F83900FEF720
:102B700049FE8246A784E784A068B0F5805F04D14F
:102B8000206910B90025B04602E035464FF0000834
:102B900000BF002084F8380000BF1BE0534600222D
:102BA00080212046CDF8009000F0EAFA08B1032019
:102BB000CBE745B9B8F80000C0F3080021684860C9
:102BC00008F1020803E02878216848606D1CE08C59
:102BD000401EE084E08C0028E0D1534600224021D2
:102BE0002046CDF8009000F0CBFA08B10320ACE706
:102BF000202084F839000020A7E70220A5E77047CD
:102C000000BFFEE700BFFEE77047704708B5084900
:102C10000968C9084FF47A72B1FBF2F1414300919F
:102C200000BF00BF00994A1E00920029F9D108BDDB
:102C300000000020704710B5FEF7EAFD10BD704798
:102C400010B50268204B98420ED0204B98420BD012
:102C5000B0F1804F08D01E4B984205D01D4B9842D2
:102C600002D01D4B984203D122F070024B681A43E8
:102C7000154B98420ED0154B98420BD0B0F1804FB7
:102C800008D0134B984205D0124B984202D0124BF9
:102C9000984203D122F44072CB681A4322F0800399
:102CA0004C6943EA040202608B68C3620B6883626A
:102CB000054B984202D0054B984201D10B69036342
:102CC0000123436110BD0000002C0140003401408D
:102CD0000004004000080040000C004030B501F046
:102CE0001F05012404FA05F3046A9C430462046A84
:102CF00001F01F0502FA05F52C43046230BD30B522
:102D00000C46816821F47F4142EA0325254329438B
:102D1000816030BD0A46816821F0700142F00703EE
:102D2000194381607047000030B5056A25F0010540
:102D30000562026A4368846924F0700424F0030485
:102D40000D682C4322F002028D682A43104DA842E0
:102D500000D103E00F4DA84206D100BF22F00802C7
:102D6000CD682A4322F00402094DA84202D0094D41
:102D7000A84207D123F4807323F400734D692B43D9
:102D80008D692B43436084614D684563026230BDA9
:102D9000002C01400034014030B5056A25F01005D3
:102DA0000562026A4368846924F4E04424F44074B0
:102DB0000D6844EA052422F020028D6842EA0512DB
:102DC000124DA84200D103E0114DA84207D100BF27
:102DD00022F08002CD6842EA051222F040020B4D3B
:102DE000A84202D00A4DA84209D123F4806323F4FB
:102DF00000634D6943EA85038D6943EA85034360B7
:102E000084614D688563026230BD0000002C014082
:102E10000034014030B5056A25F480750562026A08
:102E20004368C46924F0700424F003040D682C4343
:102E300022F400728D6842EA0522124DA84200D1A8
:102E400003E0114DA84207D100BF22F40062CD6813
:102E500042EA052222F480620A4DA84202D00A4DBD
:102E6000A84209D123F4805323F400534D6943EA67
:102E700005138D6943EA05134360C4614D68C5635A
:102E8000026230BD002C01400034014030B5056ABB
:102E900025F480550562036A4468C26922F4E04261
:102EA00022F440720D6842EA052223F400538D6833
:102EB00043EA0533084DA84202D0084DA84204D188
:102EC00024F480444D6944EA85144460C2614D682D
:102ED0000564036230BD0000002C01400034014055
:102EE00030B50B461446026A056A25F001050562F5
:102EF000816921F0F00141EA041122F00A021A432B
:102F00008161026230BD30B50B461446056A25F07A
:102F1000100505628169026A21F4704141EA0431B9
:102F200022F0A00242EA03128161026230BD70B554
:102F300005466C6A0020E085E0842046FFF730FCFF
:102F400070BD0168C96821F490710268D1600168A0
:102F5000496921F0010102685161202180F83A108D
:102F6000704710B504462068C06820F04000216812
:102F7000C860202084F839002046FFF740FE00207A
:102F800010BD70B5044694F83A00222847D1A068D5
:102F9000B0F5805F0CD1206950B90025A66A206881
:102FA0004068C0F308003080A06A801CA06215E071
:102FB000A56A0026A068B0F5805F03D0A06828B994
:102FC000206918B920684068287004E020684068CB
:102FD00000F07F002870A06A401CA062E08D401EB7
:102FE00080B2E085C8B92068C06820F02000216860
:102FF000C8602068C06820F480702168C8602068BC
:10300000406920F0010021684861202084F83A00DE
:103010002046FFF73DFD002070BD0020FCE70220A8
:10302000FAE7000070B504462168096921F44051AF
:10303000E2681143226811612269A1681143626943
:1030400041EA02052168C96841F20C6291432943B3
:103050002268D1602168496921F44071A269114355
:10306000226851612D4A2168914202D1FEF7F0FD9C
:1030700001E0FEF7DDFD00EBC00101EB001162682D
:103080009200B1FBF2F100EBC00202EB00126368A8
:103090009B00B2FBF3F26423B2FBF3F202EBC20338
:1030A00003EB0212A1EB8201322202EB0111642236
:1030B000B1FBF2F101F0F00100EBC00202EB0012F3
:1030C00063689B00B2FBF3F26423B2FBF3F201EB03
:1030D000021200EBC00101EB001163689B00B1FB21
:1030E000F3F100EBC00303EB00136668B600B3FB1B
:1030F000F6F36426B3FBF6F303EBC30606EB031308
:10310000A1EB8301322303EB01116423B1FBF3F143
:1031100001F00F0111442268916070BD0038014038
:10312000014691F83900212828D18868B0F5805FE0
:103130000BD1086948B90A6A1088C0F308000B6807
:103140005860086A801C086205E00B6A581C086217
:1031500018780B685860C88C401E80B2C88458B973
:103160000868C06820F080000B68D8600868C068F4
:1031700040F040000B68D860002070470220FCE758
:103180002DE9F04104460D4617469846069E21E07B
:10319000701CF8B12EB1FEF735FBA0EB0800B04271
:1031A00018D92068C06820F4D0702168C8602068F1
:1031B000406920F0010021684861202084F839002E
:1031C00084F83A0000BF002084F8380000BF0320D4
:1031D000BDE8F081206800682840A84201D10120A4
:1031E00000E00020B842D3D00020F1E710B502483B
:1031F000FFF7D8FA10BD0000F400002000BFFEE782
:103200000FB4054B10B503A9044A029800F08AF9DF
:1032100010BC5DF814FB0000E1400008080000202D
:103220000FB4084B10B504A902AA039800F07AF96C
:10323000044602A9002000F00CFD204610BC5DF8F9
:1032400014FB0000533C0008490050EAC12018BF9D
:1032500004204A0D18BF40F0010040F2FF72B2EBAB
:10326000515F08BF40F00200012808BF05207047E9
:1032700002480068C0F30220704700000CED00E037
:1032800010B5002804DB0A07130E054A135406E0A4
:103290000A07140E034A00F00F031B1FD45410BD7D
:1032A00000E400E018ED00E02DE9F0414F1E00EBD6
:1032B000C7010446D1E9000115461E4637F0060253
:1032C0000DD02A463346FDF7ADF87F1E04EBC70349
:1032D000D3E90023FCF7FFFF37F00602F1D1022FFC
:1032E00025D0042F13D0062F18BFBDE8F0812A4641
:1032F0003346FDF797F8D4E90A23FCF7ECFF2A469A
:103300003346FDF78FF8D4E90823FCF7E4FF2A469B
:103310003346FDF787F8D4E90623FCF7DCFF2A469D
:103320003346FDF77FF8D4E90423FCF7D4FF2A469F
:103330003346FDF777F8D4E90223FCF7CCFF2A46A1
:103340003346FDF76FF8D4E90023BDE8F041FCF700
:10335000C2BF00000022134610460149FDF7D4B851
:103360000000F03FFCF7B7BF00221346104611469D
:10337000FDF7CAB840F2013200204FF0E041FDF7FE
:10338000E7BA0000024A00201107FDF7E1BA000089
:1033900001FDFFFF02E008C8121F08C1002AFAD190
:1033A00070477047002001E001C1121F002AFBD1C5
:1033B00070470000014908607047000028000020A5
:1033C0002DE9FF5FDDE90220010DDDF838B0024391
:1033D00018D044F61050A1F2FF3141430D140F985C
:1033E000012820D0A5EB0B00401C5FEA000A4FF03B
:1033F0000004474EDFF81C91A046504616D5CAF18E
:10340000000728E00F98012443A2012808D00021DA
:1034100000980F9BC0E90021C0E90243BDE8FF9F6F
:103420006FEA0B01F4E7CBF10000DEE7074612E09C
:10343000F80707D02246334640464946FCF7F2FFDC
:10344000804689462246334610461946FCF7EAFF75
:1034500004460E467F10002FEAD1DDE90201BAF1E1
:10346000000F42464B4602DAFCF7DCFF01E0FDF7B5
:103470004BF804460E460022284BFDF71FF903D8EF
:103480004FF0FF30014607E00022254B2046314631
:10349000FCF721FFFDF784FA102409E0002C0ADB79
:1034A0000A220023FDF75EF9019B30321A55641E93
:1034B00050EA0102F2D1641C019AC4F111031444D0
:1034C0000F9A012A03D0012208430DD10AE00843D4
:1034D00004D000204FF0110B0F9080E7A3EB0B05F9
:1034E0006D1E0DE05B4504DD4FF0000205F10105A6
:1034F00004E003DA4FF00002A5F10105002AECD048
:1035000000980F99C0E90231C0E9004586E7000044
:10351000000024400000F03F300000000000F043B5
:103520000000E03F2DE9FF4F95B09B4689460646D7
:1035300000250FE2252877D100242746F84A0121EB
:10354000059400E0044316F8013F203B01FA03F024
:103550001042F7D130782A2811D06FF02F0330783D
:10356000A0F13002092A16D8059A44F0020402EBB1
:10357000820203EB42021044761C0590EFE759F8F3
:10358000042B0592002A03DA504244F400540590BB
:1035900044F00204761C30782E2816D116F8010F5C
:1035A00044F004042A280DD06FF02F023078A0F1E7
:1035B0003003092B09D807EB870302EB4303C71835
:1035C000761CF3E759F8047B761C30786C280FD012
:1035D00006DC4C2817D068280DD06A2814D104E0E6
:1035E000742810D07A280FD10DE044F400140AE0BA
:1035F00044F4801401E044F440147278824202D111
:1036000004F58014761C761C307866280BD013DC09
:10361000582877D009DC002875D04528F6D04628F0
:10362000F4D047281AD19DE118E0632835D06428EA
:1036300079D0652812D195E1702873D008DC67280D
:10364000F1D069286FD06E280DD06F2806D1B5E073
:1036500073282CD0752875D0782874D05A461799BD
:1036600090476D1C75E1C4F30250022809D003286D
:103670000DD0D9F8001004280DD00D6009F104090F
:1036800067E1D9F80010EA17C1E90052F6E7D9F866
:1036900000100D80F2E70D70F0E719F8041B8DF8AB
:1036A000001000208DF80100EA46012003E059F8DF
:1036B00004AB4FF0FF3061074FF0000102D40DE082
:1036C00008F101018846B9420FDA8045F8DB1AF8A3
:1036D00008100029F4D108E008F101018846814270
:1036E000FADB1AF808100029F6D105985B46A0EB22
:1036F000080721463846179A00F094FA284400EB50
:10370000080507E04DE029E10DE01AF8010B5A46E3
:1037100017999047B8F10108F7D25B462146384621
:10372000179A13E142E00A220092C4F302524FF0CA
:10373000000A022A08D059F804CB032A4FEAEC7198
:103740000AD00DE029E02AE009F1070121F0070283
:10375000F2E802C1914609E00FFA8CFC4FEAEC71E5
:10376000042A03D14FFA8CFC4FEAEC71002907DAE6
:103770000A460021DCF1000C61EB02012D2202E07F
:10378000220504D52B228DF80420012203E0E20754
:1037900001D02022F7E7904659E00A2102E01022EA
:1037A0000DE010214FF0000A00910BE010224FF0C5
:1037B000000A44F004040827009203E008224FF0B6
:1037C000000A0092C4F30252022A05D059F804CB31
:1037D0000021032A08D009E009F1070121F00702BE
:1037E000F2E802C1914605E01FFA8CFC042A01D1DF
:1037F0000CF0FF0C4FF00008220728D5702806D0E7
:10380000009B83F0100353EA0A0305D00EE0402228
:103810008DF80420012208E05CEA010206D0302283
:103820008DF804208DF8050002229046009B83F05D
:10383000080353EA0A030AD15CEA010201D16207D4
:1038400005D530228DF804204FF001087F1E58283E
:1038500004D034A003900EA802900DE036A0F9E742
:1038600053466046009AFCF77DFF84460398825CCD
:103870000298401E029002705CEA0100F0D10298AA
:1038800006A9081A00F1200A600702D524F4803442
:1038900000E00127574502DDA7EB0A0000E0002009
:1038A00000EB0A01009005984144401A0590E0039E
:1038B00006D45B462146179A059800F0B3F90544F3
:1038C000002706E001A85A46C05D179990476D1C75
:1038D0007F1C4745F6DBE0030CD55B462146179A73
:1038E000059800F09FF9054404E030205A461799E6
:1038F00090476D1C0099481E00900029F5DC08E0F7
:10390000029802995A460078491C029117999047EB
:103910006D1CBAF10001AAF1010AF1DC65E10000B9
:103920000928010030313233343536373839616295
:103930006364656600000000303132333435363759
:1039400038394142434445460000000000F058F930
:103950000544761C307800287FF4ECAD19B0284679
:10396000BDE8F08F620700D4062709F1070222F0B4
:10397000070CFCE80223E14603F000485FEA080C6C
:1039800002D00FF2702C0DE05FEA045C02D50FF25A
:10399000682C07E05FEAC47C02D00FF2602C01E0E3
:1039A000AFF2700C4FF0FF3823F00043CDF850C059
:1039B00065280CD006DC452809D046281DD04728AC
:1039C0003DD13DE0662818D067287ED138E000213F
:1039D000112F01DB112000E0781CCDE9000106A9C0
:1039E0000EA8FFF7EDFCDDE90F010E9A039100210F
:1039F000009207F1010A04914DE04FF0004000975A
:103A0000CDE9011006A90EA8FFF7DAFCDDE90F02E7
:103A100003920E9B11990022DDF80CA000930492F2
:103A200011B9791C00EB010AB7EB0A0004D4C0F10C
:103A3000FF3007F1010A0490AAEB0700019044E06F
:103A4000012F00DA01270021112F01DD112000E0F4
:103A50003846CDE9000106A90EA8FFF7B1FCDDE963
:103A60000F010E9A0391002104910092BA4621079A
:103A70000CD40399514500DA8A46BAF1010F05DDED
:103A8000009AAAF10101515C302908D0B84202DA4B
:103A900010F1040F06DA0121CDE9011015E0AAF1B9
:103AA0000101E9E7002805DC049901440491AAEB2F
:103AB000000102E0411C514500DD8A460499401A8C
:103AC000401C01904FF000400290200704D4019860
:103AD000504501DBCDF8048000208DF84F0002989E
:103AE0000DF14F07B0F1004F25D02B200E9002981A
:103AF0004FF0020800280CDA404202902D200E9070
:103B000007E00A210298FCF717FE3031029007F80F
:103B1000011DB8F10001A8F10108F2DC02980028AB
:103B2000EFD1791E0E980870307800F0200040F038
:103B3000450007F8020D12A8C01B00F107081498F1
:103B4000007800B1012000EB0A01019801EBE0715F
:103B500005984144401A401E0590E00306D45B4698
:103B60002146179A059800F05DF8054414980078EE
:103B700018B15A46179990476D1CE00324D55B464F
:103B80002146179A059800F04DF805441CE004986A
:103B9000002807DBDDE90301884203DD0098405C73
:103BA000179901E0179930205A469047049805F17B
:103BB0000105401C04900198401E019004D12E2064
:103BC0005A46179990476D1CBAF10001AAF1010AF3
:103BD000DDDC05E017F8010B5A46179990476D1C7C
:103BE000B8F10001A8F10108F4DC5B462146179A00
:103BF0000598ABE62D0000002B000000200000001F
:103C00002DE9F041044600251E461746880404D4D9
:103C100005E039462020B0476D1C641EF9D52846C2
:103C2000BDE8F0812DE9F041044600251E4690468E
:103C3000C80301D5302700E02027880404D505E01B
:103C400041463846B0476D1C641EF9D52846BDE88C
:103C5000F0810A68531C0B60107070472DE9F04723
:103C600005460E4691469A46002441494846FCF7CF
:103C700059FD01D806242BE03E494846FCF752FD89
:103C800001D8052424E05046FCF7ECFC074600224E
:103C9000394BFCF713FD01D8082419E05046FCF716
:103CA000E1FC0746354A364BFCF708FD01D80724EE
:103CB0000EE0232D01DB01240AE0142D01DC022497
:103CC00006E0502E01DB032402E00A2E00DC04246F
:103CD0002C480078844249D02A480470092C41D2EB
:103CE000DFE804F005080F161D242B32390000F020
:103CF000B9F83AE04FF4FA6000F0C4F800F0BAF80E
:103D000033E04FF4E16000F0BDF800F0B3F82CE0D0
:103D10004FF4C86000F0B6F800F0ACF825E04FF4BE
:103D2000AF6000F0AFF800F0A5F81EE040F6C41058
:103D300000F0A8F800F09EF817E040F6B83000F068
:103D4000A1F800F097F810E040F6980000F09AF81B
:103D500000F090F809E040F68C2000F093F800F0B5
:103D600089F802E000F07EF800BF00BFBDE8F087F0
:103D700000004843000048420000E03F9A999999AA
:103D80009999C93F2400002000B58BB00020039012
:103D90000490059006900190029000BF00BF2C484F
:103DA000806940F008002A4988610846806900F06F
:103DB0000800009000BF00BF00BF00BF0846C069F8
:103DC00040F00400C8610846C06900F0040000909B
:103DD00000BF00BF881507900220089001200990BD
:103DE00003200A9007A91B48FDF754FB1A481B49FA
:103DF00008604720486000211848816040F2E731A0
:103E0000C160002101618161FEF792FA4FF4805098
:103E1000039003A91148FEF7BFFA1048FEF7BEFB56
:103E200000200190029001A90C48FEF733FA6020AF
:103E30000B49086040F2F310486000208860086178
:103E400008220648FEF72CFB00F00CF80BB000BD72
:103E500000100240000C0140000800402C0200202D
:103E60007402002010B508210148FEF745FC10BD82
:103E70002C02002010B508210148FEF7C3FB10BD3D
:103E80002C02002010B5642800DA642042F210727F
:103E9000904200DD10460A4A92FBF0F2521E91B2A7
:103EA00000BF084A1268D162064AD16000BF4A1CAE
:103EB00002EBD2735B10034C2468E36310BD000077
:103EC00040420F002C0200200149086070470000AA
:103ED0000400002010B504464FF47A7104FB01F091
:103EE00000F002F810BD000070B5034600224FF04C
:103EF000E02675690D4E366803FB06F44FF0E026A8
:103F0000B16910E04FF0E026B06988420BD08842DA
:103F100002D20E1A324402E02E1A0E4432440146F6
:103F2000A24200D300E0EDE700BF70BD0400002016
:103F300070B50024002504E0601CC4B20120FFF726
:103F4000D3FF4FF400610F48FDF744FC08B1642C27
:103F5000F2DB642C01DB012511E0002404E0601C8D
:103F6000C4B20120FFF7C0FF4FF400610548FDF720
:103F700031FC08B9642CF2DB642C00DB01252846F7
:103F800070BD00000020014000B585B000BF00BF3B
:103F90000F48806940F480700D4988610846806947
:103FA00000F48070009000BF00BF00BFC8140190F3
:103FB00011200290012003900320049001A90548DC
:103FC000FDF768FA00F072F8FFF7B2FF05B000BD28
:103FD000001002400020014010B5002404E0601CE5
:103FE000C4B20120FFF780FF4FF400611048FDF7D5
:103FF000F1FB08B1642CF2DB002404E0601CC4B2C5
:104000000120FFF771FF4FF400610948FDF7E2FB63
:1040100008B9642CF2DB2820FFF766FF4FF400613B
:104020000348FDF7D7FB08B1012010BD0020FCE7D5
:104030000020014070B50024002506E06006040E53
:10404000FFF7CAFF0443681CC5B2082DF6DB204603
:1040500070BD7CB505460E4600F028F8FFF768FFF6
:10406000F8B9002405E0FFF7E5FF0DF80400601C37
:10407000C4B2052CF7DB9DF800009DF80110084440
:104080009DF8021008449DF8031008449DF80410A0
:10409000884208D19DF8000030709DF80200287019
:1040A00001E001207CBD0020FCE7000010B500BF4E
:1040B00000224FF400610948FDF79EFB00BF142069
:1040C000FFF708FF00BF0122D1020448FDF794FB6F
:1040D00000BF1E20FFF708FF10BD000000200140B8
:1040E00000BF054A126802F04002002AF9D0C2B2AD
:1040F000014B1B1D1A6070470038014070B5044623
:104100000025002604E000F009F80544701CC6B242
:10411000A642F8DBB5FBF4F080B270BD10B500220A
:1041200020211448FDF768FB4FF4A070FFF7DCFE78
:104130004FF48C70FFF7D8FE0F48FDF73FF80A21C7
:104140000D48FCF783FF0C48FCF7C6FE00F4007036
:1041500020B10948FCF7C3FE84B200E0002401222C
:1041600020210448FDF748FB0A20FFF7B3FE204654
:1041700010BD0000000C0140BC0100202DE9F84FEB
:104180000520FFF7BBFF00900098FCF72CFA804653
:10419000FCF768FA064600221E4BFCF743F904467A
:1041A000FCF7A4FA83465846FCF75CFA0446002262
:1041B000194BFCF783FA11D25846FCF753FA06461E
:1041C0000022154BFCF728F980460022134BFCF720
:1041D0009BF90446FCF78AFA824601E04FF0000A98
:1041E0005046FCF73FFA044600221346FCF74EFA0D
:1041F00001D24FF0000A5046FCF734FA0446002280
:10420000074BFCF75BFA01D2DFF818A05046BDE877
:10421000F88F000000C8E93F00C082400000244041
:1042200000407F400000FA4300B589B000BF33482A
:10423000806940F40070314988610846806900F463
:104240000070019000BF00BF00BF0846806940F0C9
:10425000040088610846806900F00400019000BFF6
:1042600000BF00BF00BF0846806940F008008861B9
:104270000846806900F00800019000BF00BF00BF41
:1042800001200590032006900020079005A91C48F6
:10429000FDF700F9202005900120069007900320EB
:1042A000089005A91748FDF7F5F8012220211548C7
:1042B000FDF7A2FA14481549086000204860002163
:1042C0001248816001730121016100210175816142
:1042D0004FF46021C161FCF707FE0020029001202D
:1042E00003900720049002A90848FCF745FD074801
:1042F000FCF7C0FC002009B000BD00000010024027
:1043000000080140000C014000240140BC010020D5
:1043100070B50446002609480588408845430021B9
:10432000084603F08BF803F07DFA00BF02E0044872
:104330000480761CAE42FAD370BD00007C010020E0
:104340000008006C10B5044658488471002C58D100
:10435000F020564908804FF4A070488008468088B5
:1043600045F21051884210D14FF430504F49088126
:104370004FF4285048814FF42C5088814FF4F0704E
:1043800008804FF4487048801AE04848808841F619
:10439000631188420DD12C20444908812B2048818B
:1043A0002A2088814FF4F07008804FF448704880CC
:1043B00006E02C203D4908812A2048812B20888155
:1043C0003A48808845F21031884205D037488088C5
:1043D00047F29671884206D14FF4A07033490880A5
:1043E0004FF4F07048803148808849F606018842D1
:1043F00058D14FF4F0702D4908804FF44870488030
:1044000050E04FF4A07029490880F0204880084609
:10441000808845F21051884210D14FF43050234922
:1044200008814FF4285048814FF42C5088814FF474
:10443000487008804FF4F070488020E01B48808866
:1044400041F66311884205D01848808849F6060174
:1044500088420DD12C20154908812A2048812B2023
:1044600088814FF4487008804FF4F070488006E06F
:104470002C200E4908812A2048812B2088810B4856
:10448000808845F21031884205D00848808847F27C
:104490009671884206D14FF4F070044908804FF4B9
:1044A000A0704880002002F0ABFE10BD7C0100200F
:1044B00070B505460E4614463146284602F0BEFF4A
:1044C00003F0B0F901490C8070BD00000008006CD9
:1044D00010B5CF2003F09AF9002003F08BF9C1202A
:1044E00003F088F9302003F085F9ED2003F08EF910
:1044F000642003F07FF9032003F07CF9122003F01D
:1045000079F9812003F076F9E82003F07FF985201E
:1045100003F070F9102003F06DF97A2003F06AF9C6
:10452000CB2003F073F9392003F064F92C2003F059
:1045300061F9002003F05EF9342003F05BF90220FA
:1045400003F058F9F72003F061F9202003F052F945
:10455000EA2003F05BF9002003F04CF9002003F09F
:1045600049F9C02003F052F91B2003F043F9C120A0
:1045700003F04CF9012003F03DF9C52003F046F9A2
:10458000302003F037F9302003F034F9C72003F06E
:104590003DF9B72003F02EF9362003F037F9482013
:1045A00003F028F93A2003F031F9552003F022F9FD
:1045B000B12003F02BF9002003F01CF91A2003F0BE
:1045C00019F9B62003F022F90A2003F013F9A2200A
:1045D00003F010F9F22003F019F9002003F00AF9B2
:1045E000262003F013F9012003F004F9E02003F082
:1045F0000DF90F2003F0FEF82A2003F0FBF8282025
:1046000003F0F8F8082003F0F5F80E2003F0F2F8B4
:10461000082003F0EFF8542003F0ECF8A92003F091
:10462000E9F8432003F0E6F80A2003F0E3F80F204E
:1046300003F0E0F8002003F0DDF8002003F0DAF8E2
:10464000002003F0D7F8002003F0D4F8E12003F0B5
:10465000DDF8002003F0CEF8152003F0CBF817208A
:1046600003F0C8F8072003F0C5F8112003F0C2F8E2
:10467000062003F0BFF82B2003F0BCF8562003F00F
:10468000B9F83C2003F0B6F8052003F0B3F8102089
:1046900003F0B0F80F2003F0ADF83F2003F0AAF8C4
:1046A0003F2003F0A7F80F2003F0A4F82B2003F01D
:1046B000ADF8002003F09EF8002003F09BF80120E5
:1046C00003F098F83F2003F095F82A2003F09EF8B5
:1046D000002003F08FF8002003F08CF8002003F096
:1046E00089F8EF2003F086F8112003F08FF8782086
:1046F000FFF7F0FB292003F089F810BD10B5FF206B
:1047000003F084F8FF2003F075F8982003F072F8A6
:10471000062003F06FF8BC2003F078F8012003F0C6
:1047200069F80F2003F066F8612003F063F8FF20BA
:1047300003F060F8012003F05DF8012003F05AF85F
:104740000B2003F057F8102003F054F8372003F043
:1047500051F8632003F04EF8FF2003F04BF8FF20E0
:1047600003F048F8012003F045F8012003F042F877
:10477000002003F03FF8002003F03CF8FF2003F096
:1047800039F8522003F036F8012003F033F8002006
:1047900003F030F8402003F02DF8BD2003F036F888
:1047A000012003F027F8232003F024F8452003F02C
:1047B00021F8672003F01EF8012003F01BF82320E6
:1047C00003F018F8452003F015F8672003F012F8FD
:1047D000BE2003F01BF8002003F00CF8012003F0CA
:1047E00009F8AB2003F006F8602003F003F822205C
:1047F00003F000F8222002F0FDFF222002F0FAFF71
:10480000222002F0F7FF222002F0F4FFC72002F07E
:10481000FDFF362002F0EEFFED2002F0F7FF7F20D3
:1048200002F0E8FF0F2002F0E5FFC02002F0EEFFEB
:104830000F2002F0DFFF0B2002F0DCFF0A2002F065
:10484000D9FFFC2002F0E2FF082002F0D3FFDF20B6
:1048500002F0DCFF002002F0CDFF002002F0CAFFD2
:10486000002002F0C7FF002002F0C4FF002002F089
:10487000C1FF202002F0BEFFF32002F0C7FF74202A
:1048800002F0B8FFB42002F0C1FF002002F0B2FF36
:10489000002002F0AFFF002002F0ACFFF72002F092
:1048A000B5FF822002F0A6FFB12002F0AFFF00208A
:1048B00002F0A0FF132002F09DFF132002F09AFFE8
:1048C000F22002F0A3FF802002F094FF042002F007
:1048D00091FF402002F08EFF282002F08BFFC120C4
:1048E00002F094FF172002F085FF882002F082FF7B
:1048F000882002F07FFF202002F07CFFE02002F001
:1049000085FF002002F076FF0A2002F073FF1220DC
:1049100002F070FF102002F06DFF0E2002F06AFF1F
:10492000202002F067FFCC2002F064FF072002F095
:1049300061FF062002F05EFF0B2002F05BFF0E20FD
:1049400002F058FF0F2002F055FF0D2002F052FF39
:10495000152002F04FFF102002F04CFF002002F063
:1049600049FFE12002F052FF002002F043FF0B203C
:1049700002F040FF132002F03DFF0D2002F03AFF4D
:104980000E2002F037FF1B2002F034FF712002F0EE
:1049900031FF062002F02EFF062002F02BFF0A2036
:1049A00002F028FF0F2002F025FF0E2002F022FF68
:1049B0000F2002F01FFF152002F01CFF0C2002F058
:1049C00019FF002002F016FF2A2002F01FFF00202E
:1049D00002F010FF002002F00DFF012002F00AFF9C
:1049E000DF2002F007FF2B2002F010FF002002F072
:1049F00001FF002002F0FEFE032002F0FBFE1F205C
:104A000002F0F8FE3A2002F001FF552002F0F2FE1B
:104A1000362002F0FBFE002002F0ECFE112002F036
:104A2000F5FE7820FFF756FA292002F0EFFE142059
:104A3000FFF750FA2C2002F0E9FE10BD10B5ED2072
:104A400002F0E4FE012002F0D5FEFE2002F0D2FECC
:104A5000EE2002F0DBFEDE2002F0CCFE212002F090
:104A6000C9FEF12002F0D2FE012002F0C3FEDF20D9
:104A700002F0CCFE102002F0BDFEC42002F0C6FE03
:104A80008F2002F0B7FEC62002F0C0FE002002F028
:104A9000B1FEE22002F0AEFEE22002F0ABFEE22028
:104AA00002F0A8FEBF2002F0B1FEAA2002F0A2FE92
:104AB000B02002F0ABFE0D2002F09CFE002002F0C0
:104AC00099FE0D2002F096FE002002F093FE1120C8
:104AD00002F090FE002002F08DFE192002F08AFE06
:104AE000002002F087FE212002F084FE002002F068
:104AF00081FE2D2002F07EFE002002F07BFE3D2094
:104B000002F078FE002002F075FE5D2002F072FED9
:104B1000002002F06FFE5D2002F06CFE002002F02B
:104B200069FEB12002F072FE802002F063FE0020D8
:104B300002F060FE8B2002F05DFE002002F05AFEC3
:104B4000962002F057FE002002F054FEB22002F040
:104B50005DFE002002F04EFE002002F04BFE02201F
:104B600002F048FE002002F045FE032002F042FE63
:104B7000002002F03FFEB32002F048FE002002F0C9
:104B800039FE002002F036FE002002F033FE002045
:104B900002F030FE002002F02DFE002002F02AFE7E
:104BA000002002F027FE002002F024FE002002F088
:104BB00021FE002002F01EFE002002F01BFE00205D
:104BC00002F018FE002002F015FE002002F012FE96
:104BD000002002F00FFE002002F00CFE002002F088
:104BE00009FE002002F006FE002002F003FE002075
:104BF00002F000FE002002F0FDFD002002F0FAFDB0
:104C0000002002F0F7FD002002F0F4FDB42002F0D5
:104C1000FDFD8B2002F0EEFD002002F0EBFD962062
:104C200002F0E8FD002002F0E5FDA12002F0E2FD27
:104C3000002002F0DFFDB52002F0E8FD022002F0C6
:104C4000D9FD002002F0D6FD032002F0D3FD0020A4
:104C500002F0D0FD042002F0CDFD002002F0CAFDDC
:104C6000B62002F0D3FD002002F0C4FD002002F0C7
:104C7000C1FDB72002F0CAFD002002F0BBFD0020FC
:104C800002F0B8FD3F2002F0B5FD002002F0B2FDB9
:104C90005E2002F0AFFD002002F0ACFD642002F0C7
:104CA000A9FD002002F0A6FD8C2002F0A3FD00204B
:104CB00002F0A0FDAC2002F09DFD002002F09AFD64
:104CC000DC2002F097FD002002F094FD702002F03D
:104CD00091FD002002F08EFD902002F08BFD00205F
:104CE00002F088FDEB2002F085FD002002F082FD3D
:104CF000DC2002F07FFD002002F07CFDB82002F0F5
:104D000085FD002002F076FD002002F073FD0020FA
:104D100002F070FD002002F06DFD002002F06AFD3F
:104D2000002002F067FD002002F064FD002002F088
:104D300061FDBA2002F06AFD242002F05BFD002034
:104D400002F058FD002002F055FD002002F052FD57
:104D5000C12002F05BFD202002F04CFD002002F09B
:104D600049FD542002F046FD002002F043FDFF20E3
:104D700002F040FD002002F03DFDC22002F046FDA1
:104D80000A2002F037FD002002F034FD042002F07A
:104D900031FD002002F02EFDC32002F037FD3C2043
:104DA00002F028FD002002F025FD3A2002F022FD4D
:104DB000002002F01FFD392002F01CFD002002F04F
:104DC00019FD372002F016FD002002F013FD3C20F3
:104DD00002F010FD002002F00DFD362002F00AFD69
:104DE000002002F007FD322002F004FD002002F056
:104DF00001FD2F2002F0FEFC002002F0FBFC2C2025
:104E000002F0F8FC002002F0F5FC292002F0F2FC90
:104E1000002002F0EFFC262002F0ECFC002002F063
:104E2000E9FC242002F0E6FC002002F0E3FC242050
:104E300002F0E0FC002002F0DDFC232002F0DAFCAE
:104E4000002002F0D7FC3C2002F0D4FC002002F04D
:104E5000D1FC362002F0CEFC002002F0CBFC322048
:104E600002F0C8FC002002F0C5FC2F2002F0C2FCBA
:104E7000002002F0BFFC2C2002F0BCFC002002F05D
:104E8000B9FC292002F0B6FC002002F0B3FC262079
:104E900002F0B0FC002002F0ADFC242002F0AAFCDD
:104EA000002002F0A7FC242002F0A4FC002002F065
:104EB000A1FC232002F09EFC002002F09BFCC420F9
:104EC00002F0A4FC622002F095FC002002F092FCAB
:104ED000052002F08FFC002002F08CFC842002F000
:104EE00089FC002002F086FCF02002F083FC002008
:104EF00002F080FC182002F07DFC002002F07AFC19
:104F0000A42002F077FC002002F074FC182002F0CC
:104F100071FC002002F06EFC502002F06BFC0020BF
:104F200002F068FC0C2002F065FC002002F062FC3C
:104F3000172002F05FFC002002F05CFC952002F0DC
:104F400059FC002002F056FCF32002F053FC002034
:104F500002F050FCE62002F04DFC002002F04AFC7A
:104F6000C52002F053FC322002F044FC002002F085
:104F700041FC442002F03EFC002002F03BFC652096
:104F800002F038FC002002F035FC762002F032FC02
:104F9000002002F02FFC882002F02CFC002002F000
:104FA00029FCC62002F032FC202002F023FC002065
:104FB00002F020FC172002F01DFC002002F01AFC79
:104FC000012002F017FC002002F014FCC72002F0C0
:104FD0001DFC002002F00EFC002002F00BFC002063
:104FE00002F008FC002002F005FCC82002F00EFCD4
:104FF000002002F0FFFB002002F0FCFB002002F08A
:10500000F9FB002002F0F6FBC92002F0FFFB0020B4
:1050100002F0F0FB002002F0EDFB002002F0EAFBC2
:10502000002002F0E7FB002002F0E4FB002002F089
:10503000E1FB002002F0DEFB002002F0DBFB0020A1
:1050400002F0D8FB002002F0D5FB002002F0D2FBDA
:10505000002002F0CFFB002002F0CCFB002002F089
:10506000C9FB002002F0C6FB002002F0C3FBE020D9
:1050700002F0CCFB162002F0BDFB002002F0BAFBD0
:105080001C2002F0B7FB002002F0B4FB212002F04C
:10509000B1FB002002F0AEFB362002F0ABFB00209B
:1050A00002F0A8FB462002F0A5FB002002F0A2FBC4
:1050B000522002F09FFB002002F09CFB642002F0D3
:1050C00099FB002002F096FB7A2002F093FB00206F
:1050D00002F090FB8B2002F08DFB002002F08AFB97
:1050E000992002F087FB002002F084FBA82002F048
:1050F00081FB002002F07EFBB92002F07BFB002048
:1051000002F078FBC42002F075FB002002F072FB75
:10511000CA2002F06FFB002002F06CFBD22002F0EC
:1051200069FB002002F066FBD92002F063FB00203F
:1051300002F060FBE02002F05DFB002002F05AFB71
:10514000F32002F057FB002002F054FBE12002F0B4
:105150005DFB162002F04EFB002002F04BFB1C20F2
:1051600002F048FB002002F045FB222002F042FB47
:10517000002002F03FFB362002F03CFB002002F052
:1051800039FB452002F036FB002002F033FB5220B1
:1051900002F030FB002002F02DFB642002F02AFB1D
:1051A000002002F027FB7A2002F024FB002002F00E
:1051B00021FB8B2002F01EFB002002F01BFB99203C
:1051C00002F018FB002002F015FBA82002F012FBF1
:1051D000002002F00FFBB92002F00CFB002002F0CF
:1051E00009FBC42002F006FB002002F003FBCA20EA
:1051F00002F000FB002002F0FDFAD22002F0FAFAE1
:10520000002002F0F7FAD82002F0F4FA002002F0B1
:10521000F1FAE02002F0EEFA002002F0EBFAF320BF
:1052200002F0E8FA002002F0E5FAE22002F0EEFADD
:10523000052002F0DFFA002002F0DCFA0B2002F079
:10524000D9FA002002F0D6FA1B2002F0D3FA00208F
:1052500002F0D0FA342002F0CDFA002002F0CAFAAF
:10526000442002F0C7FA002002F0C4FA4F2002F0F6
:10527000C1FA002002F0BEFA612002F0BBFA002061
:1052800002F0B8FA792002F0B5FA002002F0B2FA82
:10529000882002F0AFFA002002F0ACFA972002F06A
:1052A000A9FA002002F0A6FAA62002F0A3FA002034
:1052B00002F0A0FAB72002F09DFA002002F09AFA5C
:1052C000C22002F097FA002002F094FAC72002F000
:1052D00091FA002002F08EFAD12002F08BFA002021
:1052E00002F088FAD62002F085FA002002F082FA55
:1052F000DD2002F07FFA002002F07CFAF32002F0B9
:1053000079FA002002F076FAE32002F07FFA052015
:1053100002F070FA002002F06DFA0A2002F06AFA38
:10532000002002F067FA1C2002F064FA002002F06C
:1053300061FA332002F05EFA002002F05BFA4420AA
:1053400002F058FA002002F055FA502002F052FA0A
:10535000002002F04FFA622002F04CFA002002F026
:1053600049FA782002F046FA002002F043FA882039
:1053700002F040FA002002F03DFA972002F03AFADB
:10538000002002F037FAA62002F034FA002002F0E2
:1053900031FAB72002F02EFA002002F02BFAC220D8
:1053A00002F028FA002002F025FAC72002F022FAC3
:1053B000002002F01FFAD12002F01CFA002002F0B7
:1053C00019FAD52002F016FA002002F013FADD20B7
:1053D00002F010FA002002F00DFAF32002F00AFAAF
:1053E000002002F007FAE42002F010FA012002F097
:1053F00001FA002002F0FEF9012002F0FBF9002082
:1054000002F0F8F9022002F0F5F9002002F0F2F9BA
:105410002A2002F0EFF9002002F0ECF93C2002F023
:10542000E9F9002002F0E6F94B2002F0E3F9002050
:1054300002F0E0F95D2002F0DDF9002002F0DAF977
:10544000742002F0D7F9002002F0D4F9842002F091
:10545000D1F9002002F0CEF9932002F0CBF9002020
:1054600002F0C8F9A22002F0C5F9002002F0C2F94A
:10547000B32002F0BFF9002002F0BCF9BE2002F018
:10548000B9F9002002F0B6F9C42002F0B3F9002007
:1054900002F0B0F9CD2002F0ADF9002002F0AAF937
:1054A000D32002F0A7F9002002F0A4F9DD2002F0D9
:1054B000A1F9002002F09EF9F32002F09BF90020F0
:1054C00002F098F9E52002F0A1F9002002F092F92B
:1054D000002002F08FF9002002F08CF9002002F089
:1054E00089F9022002F086F9002002F083F92920D0
:1054F00002F080F9002002F07DF93C2002F07AF9F8
:10550000002002F077F94B2002F074F9002002F03D
:1055100071F95D2002F06EF9002002F06BF9742041
:1055200002F068F9002002F065F9842002F062F9C7
:10553000002002F05FF9932002F05CF9002002F0F5
:1055400059F9A22002F056F9002002F053F9B320D5
:1055500002F050F9002002F04DF9BE2002F04AF9A5
:10556000002002F047F9C42002F044F9002002F0C4
:1055700041F9CD2002F03EF9002002F03BF9D320A2
:1055800002F038F9002002F035F9DC2002F032F99F
:10559000002002F02FF9F32002F02CF9002002F095
:1055A00029F9E62002F032F9112002F023F9002057
:1055B00002F020F9342002F01DF9002002F01AF95F
:1055C000562002F017F9002002F014F9762002F0BC
:1055D00011F9002002F00EF9772002F00BF90020FB
:1055E00002F008F9662002F005F9002002F002F945
:1055F000882002F0FFF8002002F0FCF8992002F069
:10560000F9F8002002F0F6F8BB2002F0F3F80020D1
:1056100002F0F0F8992002F0EDF8002002F0EAF82C
:10562000662002F0E7F8002002F0E4F8552002F0CE
:10563000E1F8002002F0DEF8552002F0DBF800204F
:1056400002F0D8F8452002F0D5F8002002F0D2F898
:10565000432002F0CFF8002002F0CCF8442002F002
:10566000C9F8002002F0C6F8E72002F0CFF8322097
:1056700002F0C0F8002002F0BDF8552002F0BAF8A0
:10568000002002F0B7F8762002F0B4F8002002F013
:10569000B1F8662002F0AEF8002002F0ABF8672007
:1056A00002F0A8F8002002F0A5F8672002F0A2F8A6
:1056B000002002F09FF8872002F09CF8002002F002
:1056C00099F8992002F096F8002002F093F8BB2098
:1056D00002F090F8002002F08DF8992002F08AF88C
:1056E000002002F087F8772002F084F8002002F012
:1056F00081F8442002F07EF8002002F07BF856206A
:1057000002F078F8002002F075F8232002F072F819
:10571000002002F06FF8332002F06CF8002002F055
:1057200069F8452002F066F8002002F063F8E820EE
:1057300002F06CF8002002F05DF8002002F05AF848
:10574000992002F057F8002002F054F8872002F068
:1057500051F8002002F04EF8882002F04BF80020AB
:1057600002F048F8772002F045F8002002F042F8F5
:10577000662002F03FF8002002F03CF8882002F09A
:1057800039F8002002F036F8AA2002F033F80020A1
:1057900002F030F8BB2002F02DF8002002F02AF8C9
:1057A000992002F027F8002002F024F8662002F089
:1057B00021F8002002F01EF8552002F01BF800200E
:1057C00002F018F8552002F015F8002002F012F847
:1057D000442002F00FF8002002F00CF8442002F000
:1057E00009F8002002F006F8552002F003F8002026
:1057F00002F000F8E92002F009F8AA2001F0FAFF0F
:10580000002001F0F7FF002001F0F4FF002001F07C
:10581000F1FF002001F0FAFFAA2001F0EBFFCF20FA
:1058200001F0F4FF002001F0E5FF002001F0E2FFAD
:10583000002001F0DFFF002001F0DCFF002001F07C
:10584000D9FF002001F0D6FF002001F0D3FF002097
:1058500001F0D0FF002001F0CDFF002001F0CAFFD1
:10586000002001F0C7FF002001F0C4FF002001F07C
:10587000C1FF002001F0BEFF002001F0BBFF0020AF
:1058800001F0B8FF002001F0B5FFF02001F0BEFFED
:10589000002001F0AFFF502001F0ACFF002001F02C
:1058A000A9FF002001F0A6FF002001F0A3FFF320D4
:1058B00001F0ACFF002001F09DFFF92001F0A6FFF0
:1058C000062001F097FF102001F094FF292001F03D
:1058D00091FF002001F08EFF3A2001F097FF552044
:1058E00001F088FF112001F091FF6420FEF7F2FA29
:1058F000292001F08BFF352001F088FF002001F006
:1059000079FF512001F082FFFF2001F073FF532047
:1059100001F07CFF2C2001F06DFF552001F076FF97
:10592000822001F067FF2C2001F070FF10BD10B540
:1059300055214FF4704001F07FFFAA214FF2010082
:1059400001F07AFF52214FF2020001F075FF0821A9
:105950004FF2030001F070FF01214FF2040001F04B
:105960006BFF0D214FF4304001F066FF0D214BF22B
:10597000010001F061FF0D214BF2020001F05CFF1C
:1059800034214FF4364001F057FF34214BF20160CF
:1059900001F052FF34214BF2026001F04DFF0D2166
:1059A0004FF4314001F048FF0D214BF2011001F09E
:1059B00043FF0D214BF2021001F03EFF34214FF462
:1059C000374001F039FF34214BF2017001F034FF10
:1059D00034214BF2027001F02FFF00214FF43240CE
:1059E00001F02AFF00214BF2012001F025FF0021E8
:1059F0004BF2022001F020FF24214FF4384001F047
:105A00001BFF24214BF6010001F016FF24214BF669
:105A1000020001F011FF01214FF43F4001F00CFFA3
:105A20000F214FF4334001F007FF0F214BF20130FB
:105A300001F002FF0F214BF2023001F0FDFE342194
:105A40004FF4394001F0F8FE34214BF6011001F01B
:105A5000F3FE34214BF6021001F0EEFE08214FF464
:105A6000354001F0E9FE08214BF2015001F0E4FE5F
:105A700008214BF2025001F0DFFE03214FF44240B7
:105A800001F0DAFE24214FF43A4001F0D5FE242142
:105A90004BF6012001F0D0FE24214BF6022001F04C
:105AA000CBFE00214FF43C4001F0C6FE78214BF6BE
:105AB000014001F0C1FE00214BF6024001F0BCFEA6
:105AC00000214FF43D4001F0B7FE78214BF6015024
:105AD00001F0B2FE00214BF6025001F0ADFE0021B4
